{
  "contractName": "DecentralBank",
  "abi": [
    {
      "inputs": [],
      "stateMutability": "nonpayable",
      "type": "constructor"
    },
    {
      "anonymous": false,
      "inputs": [
        {
          "indexed": true,
          "internalType": "address",
          "name": "previousOwner",
          "type": "address"
        },
        {
          "indexed": true,
          "internalType": "address",
          "name": "newOwner",
          "type": "address"
        }
      ],
      "name": "OwnershipTransferred",
      "type": "event"
    },
    {
      "inputs": [
        {
          "internalType": "address",
          "name": "",
          "type": "address"
        }
      ],
      "name": "account",
      "outputs": [
        {
          "internalType": "uint256",
          "name": "",
          "type": "uint256"
        }
      ],
      "stateMutability": "view",
      "type": "function"
    },
    {
      "inputs": [],
      "name": "name",
      "outputs": [
        {
          "internalType": "string",
          "name": "",
          "type": "string"
        }
      ],
      "stateMutability": "view",
      "type": "function"
    },
    {
      "inputs": [],
      "name": "owner",
      "outputs": [
        {
          "internalType": "address",
          "name": "",
          "type": "address"
        }
      ],
      "stateMutability": "view",
      "type": "function"
    },
    {
      "inputs": [],
      "name": "renounceOwnership",
      "outputs": [],
      "stateMutability": "nonpayable",
      "type": "function"
    },
    {
      "inputs": [
        {
          "internalType": "address",
          "name": "newOwner",
          "type": "address"
        }
      ],
      "name": "transferOwnership",
      "outputs": [],
      "stateMutability": "nonpayable",
      "type": "function"
    },
    {
      "inputs": [
        {
          "internalType": "address",
          "name": "acc",
          "type": "address"
        }
      ],
      "name": "checkBalance",
      "outputs": [
        {
          "internalType": "uint256",
          "name": "",
          "type": "uint256"
        }
      ],
      "stateMutability": "view",
      "type": "function"
    },
    {
      "inputs": [
        {
          "internalType": "address",
          "name": "_from",
          "type": "address"
        },
        {
          "internalType": "address",
          "name": "_to",
          "type": "address"
        },
        {
          "internalType": "uint256",
          "name": "_amount",
          "type": "uint256"
        }
      ],
      "name": "transferToAccount",
      "outputs": [],
      "stateMutability": "nonpayable",
      "type": "function"
    }
  ],
  "bytecode": "0x60806040526040518060400160405280600d81526020017f446563656e7472616c42616e6b000000000000000000000000000000000000008152506001908051906020019062000051929190620001a2565b503480156200005f57600080fd5b506200008062000074620000d660201b60201c565b620000de60201b60201c565b620f4240600281905550600254600360003373ffffffffffffffffffffffffffffffffffffffff1673ffffffffffffffffffffffffffffffffffffffff16815260200190815260200160002081905550620002b7565b600033905090565b60008060009054906101000a900473ffffffffffffffffffffffffffffffffffffffff169050816000806101000a81548173ffffffffffffffffffffffffffffffffffffffff021916908373ffffffffffffffffffffffffffffffffffffffff1602179055508173ffffffffffffffffffffffffffffffffffffffff168173ffffffffffffffffffffffffffffffffffffffff167f8be0079c531659141344cd1fd0a4f28419497f9722a3daafe3b4186f6b6457e060405160405180910390a35050565b828054620001b09062000281565b90600052602060002090601f016020900481019282620001d4576000855562000220565b82601f10620001ef57805160ff191683800117855562000220565b8280016001018555821562000220579182015b828111156200021f57825182559160200191906001019062000202565b5b5090506200022f919062000233565b5090565b5b808211156200024e57600081600090555060010162000234565b5090565b7f4e487b7100000000000000000000000000000000000000000000000000000000600052602260045260246000fd5b600060028204905060018216806200029a57607f821691505b60208210811415620002b157620002b062000252565b5b50919050565b610b5880620002c76000396000f3fe608060405234801561001057600080fd5b506004361061007d5760003560e01c806373b9aa911161005b57806373b9aa91146100da5780638da5cb5b1461010a578063d9ce6c8314610128578063f2fde38b146101445761007d565b806306fdde03146100825780635f515226146100a0578063715018a6146100d0575b600080fd5b61008a610160565b604051610097919061070f565b60405180910390f35b6100ba60048036038101906100b59190610794565b6101ee565b6040516100c791906107da565b60405180910390f35b6100d86102b3565b005b6100f460048036038101906100ef9190610794565b61033b565b60405161010191906107da565b60405180910390f35b610112610353565b60405161011f9190610804565b60405180910390f35b610142600480360381019061013d919061084b565b61037c565b005b61015e60048036038101906101599190610794565b6104b2565b005b6001805461016d906108cd565b80601f0160208091040260200160405190810160405280929190818152602001828054610199906108cd565b80156101e65780601f106101bb576101008083540402835291602001916101e6565b820191906000526020600020905b8154815290600101906020018083116101c957829003601f168201915b505050505081565b60006101f86105aa565b73ffffffffffffffffffffffffffffffffffffffff16610216610353565b73ffffffffffffffffffffffffffffffffffffffff161461026c576040517f08c379a00000000000000000000000000000000000000000000000000000000081526004016102639061094b565b60405180910390fd5b600360008373ffffffffffffffffffffffffffffffffffffffff1673ffffffffffffffffffffffffffffffffffffffff168152602001908152602001600020549050919050565b6102bb6105aa565b73ffffffffffffffffffffffffffffffffffffffff166102d9610353565b73ffffffffffffffffffffffffffffffffffffffff161461032f576040517f08c379a00000000000000000000000000000000000000000000000000000000081526004016103269061094b565b60405180910390fd5b61033960006105b2565b565b60036020528060005260406000206000915090505481565b60008060009054906101000a900473ffffffffffffffffffffffffffffffffffffffff16905090565b828180600360008473ffffffffffffffffffffffffffffffffffffffff1673ffffffffffffffffffffffffffffffffffffffff16815260200190815260200160002054116103ff576040517f08c379a00000000000000000000000000000000000000000000000000000000081526004016103f6906109b7565b60405180910390fd5b82600360008673ffffffffffffffffffffffffffffffffffffffff1673ffffffffffffffffffffffffffffffffffffffff168152602001908152602001600020600082825461044e9190610a06565b9250508190555082600360008773ffffffffffffffffffffffffffffffffffffffff1673ffffffffffffffffffffffffffffffffffffffff16815260200190815260200160002060008282546104a49190610a5c565b925050819055505050505050565b6104ba6105aa565b73ffffffffffffffffffffffffffffffffffffffff166104d8610353565b73ffffffffffffffffffffffffffffffffffffffff161461052e576040517f08c379a00000000000000000000000000000000000000000000000000000000081526004016105259061094b565b60405180910390fd5b600073ffffffffffffffffffffffffffffffffffffffff168173ffffffffffffffffffffffffffffffffffffffff16141561059e576040517f08c379a000000000000000000000000000000000000000000000000000000000815260040161059590610b02565b60405180910390fd5b6105a7816105b2565b50565b600033905090565b60008060009054906101000a900473ffffffffffffffffffffffffffffffffffffffff169050816000806101000a81548173ffffffffffffffffffffffffffffffffffffffff021916908373ffffffffffffffffffffffffffffffffffffffff1602179055508173ffffffffffffffffffffffffffffffffffffffff168173ffffffffffffffffffffffffffffffffffffffff167f8be0079c531659141344cd1fd0a4f28419497f9722a3daafe3b4186f6b6457e060405160405180910390a35050565b600081519050919050565b600082825260208201905092915050565b60005b838110156106b0578082015181840152602081019050610695565b838111156106bf576000848401525b50505050565b6000601f19601f8301169050919050565b60006106e182610676565b6106eb8185610681565b93506106fb818560208601610692565b610704816106c5565b840191505092915050565b6000602082019050818103600083015261072981846106d6565b905092915050565b600080fd5b600073ffffffffffffffffffffffffffffffffffffffff82169050919050565b600061076182610736565b9050919050565b61077181610756565b811461077c57600080fd5b50565b60008135905061078e81610768565b92915050565b6000602082840312156107aa576107a9610731565b5b60006107b88482850161077f565b91505092915050565b6000819050919050565b6107d4816107c1565b82525050565b60006020820190506107ef60008301846107cb565b92915050565b6107fe81610756565b82525050565b600060208201905061081960008301846107f5565b92915050565b610828816107c1565b811461083357600080fd5b50565b6000813590506108458161081f565b92915050565b60008060006060848603121561086457610863610731565b5b60006108728682870161077f565b93505060206108838682870161077f565b925050604061089486828701610836565b9150509250925092565b7f4e487b7100000000000000000000000000000000000000000000000000000000600052602260045260246000fd5b600060028204905060018216806108e557607f821691505b602082108114156108f9576108f861089e565b5b50919050565b7f4f776e61626c653a2063616c6c6572206973206e6f7420746865206f776e6572600082015250565b6000610935602083610681565b9150610940826108ff565b602082019050919050565b6000602082019050818103600083015261096481610928565b9050919050565b7f496e73756666696369656e742062616c616e6365000000000000000000000000600082015250565b60006109a1601483610681565b91506109ac8261096b565b602082019050919050565b600060208201905081810360008301526109d081610994565b9050919050565b7f4e487b7100000000000000000000000000000000000000000000000000000000600052601160045260246000fd5b6000610a11826107c1565b9150610a1c836107c1565b9250827fffffffffffffffffffffffffffffffffffffffffffffffffffffffffffffffff03821115610a5157610a506109d7565b5b828201905092915050565b6000610a67826107c1565b9150610a72836107c1565b925082821015610a8557610a846109d7565b5b828203905092915050565b7f4f776e61626c653a206e6577206f776e657220697320746865207a65726f206160008201527f6464726573730000000000000000000000000000000000000000000000000000602082015250565b6000610aec602683610681565b9150610af782610a90565b604082019050919050565b60006020820190508181036000830152610b1b81610adf565b905091905056fea2646970667358221220b2f0700f8cb673ddeb20c9684af53f560e2fa840c05ac347f5dd4ef826bf38fa64736f6c634300080a0033",
  "immutableReferences": {},
  "source": "// SPDX-License-Identifier: MIT\npragma solidity >=0.4.22 <0.9.0;\n\nimport \"@openzeppelin/contracts/access/Ownable.sol\";\n\n\ncontract DecentralBank is Ownable {\n    string public name = \"DecentralBank\";\n    uint balance;\n    mapping(address => uint) public account;\n\n    constructor() {\n        balance = 1000000;\n        account[msg.sender] = balance;\n    }\n\n    function checkBalance(address acc) public view onlyOwner returns (uint) {\n        return account[acc];\n    }\n\n    modifier hasBalance(address _from, uint _amount) {\n        require(account[_from] > _amount, \"Insufficient balance\");\n        _;\n    }\n\n    function transferToAccount(address _from, address _to, uint \n    _amount) public hasBalance(_from, _amount) {\n        account[_to] += _amount;\n        account[_from] -= _amount;\n    }\n}\n",
  "sourcePath": "/Users/p360/Desktop/Remit-Now/src/contracts/DecentralBank.sol",
  "compiler": {
    "name": "solc",
    "version": "0.8.10+commit.fc410830.Emscripten.clang"
  },
  "schemaVersion": "3.4.3",
  "updatedAt": "2021-12-06T13:45:40.348Z",
  "devdoc": {
    "kind": "dev",
    "methods": {
      "owner()": {
        "details": "Returns the address of the current owner."
      },
      "renounceOwnership()": {
        "details": "Leaves the contract without owner. It will not be possible to call `onlyOwner` functions anymore. Can only be called by the current owner. NOTE: Renouncing ownership will leave the contract without an owner, thereby removing any functionality that is only available to the owner."
      },
      "transferOwnership(address)": {
        "details": "Transfers ownership of the contract to a new account (`newOwner`). Can only be called by the current owner."
      }
    },
    "version": 1
  },
  "userdoc": {
    "kind": "user",
    "methods": {},
    "version": 1
  }
}